{
  "_format": "hh-sol-artifact-1",
  "contractName": "CredentialSeal",
  "sourceName": "contracts/CredentialSeal.sol",
  "abi": [
    {
      "inputs": [],
      "stateMutability": "nonpayable",
      "type": "constructor"
    },
    {
      "inputs": [
        {
          "internalType": "bytes32",
          "name": "resultHash",
          "type": "bytes32"
        }
      ],
      "name": "AlreadySealed",
      "type": "error"
    },
    {
      "inputs": [],
      "name": "EmptyResultId",
      "type": "error"
    },
    {
      "inputs": [
        {
          "internalType": "bytes32",
          "name": "resultHash",
          "type": "bytes32"
        }
      ],
      "name": "NotFound",
      "type": "error"
    },
    {
      "inputs": [],
      "name": "Unauthorized",
      "type": "error"
    },
    {
      "inputs": [],
      "name": "ZeroHash",
      "type": "error"
    },
    {
      "anonymous": false,
      "inputs": [
        {
          "indexed": true,
          "internalType": "address",
          "name": "previousOwner",
          "type": "address"
        },
        {
          "indexed": true,
          "internalType": "address",
          "name": "newOwner",
          "type": "address"
        }
      ],
      "name": "OwnershipTransferred",
      "type": "event"
    },
    {
      "anonymous": false,
      "inputs": [
        {
          "indexed": true,
          "internalType": "bytes32",
          "name": "resultHash",
          "type": "bytes32"
        },
        {
          "indexed": false,
          "internalType": "bool",
          "name": "revoked",
          "type": "bool"
        }
      ],
      "name": "ResultRevoked",
      "type": "event"
    },
    {
      "anonymous": false,
      "inputs": [
        {
          "indexed": true,
          "internalType": "bytes32",
          "name": "resultHash",
          "type": "bytes32"
        },
        {
          "indexed": true,
          "internalType": "string",
          "name": "resultId",
          "type": "string"
        },
        {
          "indexed": false,
          "internalType": "uint256",
          "name": "timestamp",
          "type": "uint256"
        },
        {
          "indexed": false,
          "internalType": "address",
          "name": "sealer",
          "type": "address"
        }
      ],
      "name": "ResultSealed",
      "type": "event"
    },
    {
      "inputs": [
        {
          "internalType": "bytes32[]",
          "name": "hashes",
          "type": "bytes32[]"
        },
        {
          "internalType": "string[]",
          "name": "resultIds",
          "type": "string[]"
        }
      ],
      "name": "batchSealResults",
      "outputs": [],
      "stateMutability": "nonpayable",
      "type": "function"
    },
    {
      "inputs": [],
      "name": "getTotalSealed",
      "outputs": [
        {
          "internalType": "uint256",
          "name": "",
          "type": "uint256"
        }
      ],
      "stateMutability": "view",
      "type": "function"
    },
    {
      "inputs": [
        {
          "internalType": "bytes32",
          "name": "resultHash",
          "type": "bytes32"
        }
      ],
      "name": "isValid",
      "outputs": [
        {
          "internalType": "bool",
          "name": "",
          "type": "bool"
        }
      ],
      "stateMutability": "view",
      "type": "function"
    },
    {
      "inputs": [],
      "name": "owner",
      "outputs": [
        {
          "internalType": "address",
          "name": "",
          "type": "address"
        }
      ],
      "stateMutability": "view",
      "type": "function"
    },
    {
      "inputs": [
        {
          "internalType": "bytes32",
          "name": "resultHash",
          "type": "bytes32"
        }
      ],
      "name": "reinstateResult",
      "outputs": [],
      "stateMutability": "nonpayable",
      "type": "function"
    },
    {
      "inputs": [
        {
          "internalType": "bytes32",
          "name": "resultHash",
          "type": "bytes32"
        }
      ],
      "name": "revokeResult",
      "outputs": [],
      "stateMutability": "nonpayable",
      "type": "function"
    },
    {
      "inputs": [
        {
          "internalType": "bytes32",
          "name": "resultHash",
          "type": "bytes32"
        },
        {
          "internalType": "string",
          "name": "resultId",
          "type": "string"
        }
      ],
      "name": "sealResult",
      "outputs": [],
      "stateMutability": "nonpayable",
      "type": "function"
    },
    {
      "inputs": [
        {
          "internalType": "address",
          "name": "newOwner",
          "type": "address"
        }
      ],
      "name": "transferOwnership",
      "outputs": [],
      "stateMutability": "nonpayable",
      "type": "function"
    },
    {
      "inputs": [
        {
          "internalType": "bytes32",
          "name": "resultHash",
          "type": "bytes32"
        }
      ],
      "name": "verifyResult",
      "outputs": [
        {
          "internalType": "bool",
          "name": "exists",
          "type": "bool"
        },
        {
          "internalType": "string",
          "name": "resultId",
          "type": "string"
        },
        {
          "internalType": "uint256",
          "name": "timestamp",
          "type": "uint256"
        },
        {
          "internalType": "address",
          "name": "sealer",
          "type": "address"
        },
        {
          "internalType": "bool",
          "name": "revoked",
          "type": "bool"
        }
      ],
      "stateMutability": "view",
      "type": "function"
    },
    {
      "stateMutability": "payable",
      "type": "receive"
    }
  ],
  "bytecode": "0x608060405234801561001057600080fd5b50600080546001600160a01b0319163390811782556040519091907f8be0079c531659141344cd1fd0a4f28419497f9722a3daafe3b4186f6b6457e0908290a3610f078061005f6000396000f3fe60806040526004361061008a5760003560e01c80639b9f14b6116100595780639b9f14b614610198578063ec37bd16146101b6578063ed005627146101d6578063f2fde38b146101f6578063fe7b38a71461021657600080fd5b806317b8d1c6146100d4578063243cd0241461010e5780636a938567146101305780638da5cb5b1461016057600080fd5b366100cf5760405162461bcd60e51b815260206004820152601060248201526f115512081b9bdd081858d8d95c1d195960821b60448201526064015b60405180910390fd5b600080fd5b3480156100e057600080fd5b506100f46100ef366004610aea565b610236565b604051610105959493929190610b03565b60405180910390f35b34801561011a57600080fd5b5061012e610129366004610aea565b610340565b005b34801561013c57600080fd5b5061015061014b366004610aea565b610420565b6040519015158152602001610105565b34801561016c57600080fd5b50600054610180906001600160a01b031681565b6040516001600160a01b039091168152602001610105565b3480156101a457600080fd5b50600154604051908152602001610105565b3480156101c257600080fd5b5061012e6101d1366004610b81565b610452565b3480156101e257600080fd5b5061012e6101f1366004610c49565b610636565b34801561020257600080fd5b5061012e610211366004610cb5565b610958565b34801561022257600080fd5b5061012e610231366004610aea565b610a22565b60006060818080858061025c5760405163f1ae58d560e01b815260040160405180910390fd5b60008781526002602081905260409091208054918101546003820154600183018054939460ff908116949193926001600160a01b03811692600160a01b9091049091169084906102ab90610cde565b80601f01602080910402602001604051908101604052809291908181526020018280546102d790610cde565b80156103245780601f106102f957610100808354040283529160200191610324565b820191906000526020600020905b81548152906001019060200180831161030757829003601f168201915b5050505050935096509650965096509650505091939590929450565b6000546001600160a01b0316331461036a576040516282b42960e81b815260040160405180910390fd5b80806103895760405163f1ae58d560e01b815260040160405180910390fd5b60008281526002602052604090205460ff166103bb57604051632d24044b60e11b8152600481018390526024016100c6565b60008281526002602052604090819020600301805460ff60a01b1916600160a01b1790555182907fe9cd6721343990427ce7831fac025927ddaa4bf11a85e2b33f6cf1bc5191e4db906104149060011515815260200190565b60405180910390a25050565b6000818152600260205260408120805460ff16801561044b57506003810154600160a01b900460ff16155b9392505050565b6000546001600160a01b0316331461047c576040516282b42960e81b815260040160405180910390fd5b828061049b5760405163f1ae58d560e01b815260040160405180910390fd5b60008290036104bd57604051631e80e75d60e31b815260040160405180910390fd5b60008481526002602052604090205460ff16156104f05760405163f90bb51360e01b8152600481018590526024016100c6565b6040518060a0016040528060011515815260200184848080601f016020809104026020016040519081016040528093929190818152602001838380828437600092018290525093855250504260208085019190915233604080860191909152606090940183905288835260028152929091208351815460ff1916901515178155918301516001830191506105849082610d7d565b50604082015160028201556060820151600390910180546080909301511515600160a01b026001600160a81b03199093166001600160a01b0390921691909117919091179055600180549060006105da83610e3d565b919050555082826040516105ef929190610e64565b604080519182900382204283523360208401529186917f965e3d3a7a933dfad7c20b42050ba1070ae53ec4104c03d495d6750d0a392a22910160405180910390a350505050565b6000546001600160a01b03163314610660576040516282b42960e81b815260040160405180910390fd5b8281146106a15760405162461bcd60e51b815260206004820152600f60248201526e098cadccee8d040dad2e6dac2e8c6d608b1b60448201526064016100c6565b60328311156106e55760405162461bcd60e51b815260206004820152601060248201526f09ac2f0406a6040e0cae440c4c2e8c6d60831b60448201526064016100c6565b60005b8381101561095157600085858381811061070457610704610e74565b90506020020135031561093f576002600086868481811061072757610727610e74565b602090810292909201358352508101919091526040016000205460ff1661093f5782828281811061075a5761075a610e74565b905060200281019061076c9190610e8a565b15905061093f576040518060a0016040528060011515815260200184848481811061079957610799610e74565b90506020028101906107ab9190610e8a565b8080601f0160208091040260200160405190810160405280939291908181526020018383808284376000920182905250938552505042602084015250336040830152606090910181905260029087878581811061080a5761080a610e74565b60209081029290920135835250818101929092526040016000208251815460ff19169015151781559082015160018201906108459082610d7d565b50604082015160028201556060820151600390910180546080909301511515600160a01b026001600160a81b03199093166001600160a01b03909216919091179190911790556001805490600061089b83610e3d565b91905055508282828181106108b2576108b2610e74565b90506020028101906108c49190610e8a565b6040516108d2929190610e64565b60405180910390208585838181106108ec576108ec610e74565b905060200201357f965e3d3a7a933dfad7c20b42050ba1070ae53ec4104c03d495d6750d0a392a2242336040516109369291909182526001600160a01b0316602082015260400190565b60405180910390a35b8061094981610e3d565b9150506106e8565b5050505050565b6000546001600160a01b03163314610982576040516282b42960e81b815260040160405180910390fd5b6001600160a01b0381166109c75760405162461bcd60e51b815260206004820152600c60248201526b5a65726f206164647265737360a01b60448201526064016100c6565b600080546040516001600160a01b03808516939216917f8be0079c531659141344cd1fd0a4f28419497f9722a3daafe3b4186f6b6457e091a3600080546001600160a01b0319166001600160a01b0392909216919091179055565b6000546001600160a01b03163314610a4c576040516282b42960e81b815260040160405180910390fd5b8080610a6b5760405163f1ae58d560e01b815260040160405180910390fd5b60008281526002602052604090205460ff16610a9d57604051632d24044b60e11b8152600481018390526024016100c6565b6000828152600260209081526040808320600301805460ff60a01b191690555191825283917fe9cd6721343990427ce7831fac025927ddaa4bf11a85e2b33f6cf1bc5191e4db9101610414565b600060208284031215610afc57600080fd5b5035919050565b85151581526000602060a08184015286518060a085015260005b81811015610b395788810183015185820160c001528201610b1d565b50600060c0828601015260c0601f19601f83011685010192505050846040830152610b6f60608301856001600160a01b03169052565b82151560808301529695505050505050565b600080600060408486031215610b9657600080fd5b83359250602084013567ffffffffffffffff80821115610bb557600080fd5b818601915086601f830112610bc957600080fd5b813581811115610bd857600080fd5b876020828501011115610bea57600080fd5b6020830194508093505050509250925092565b60008083601f840112610c0f57600080fd5b50813567ffffffffffffffff811115610c2757600080fd5b6020830191508360208260051b8501011115610c4257600080fd5b9250929050565b60008060008060408587031215610c5f57600080fd5b843567ffffffffffffffff80821115610c7757600080fd5b610c8388838901610bfd565b90965094506020870135915080821115610c9c57600080fd5b50610ca987828801610bfd565b95989497509550505050565b600060208284031215610cc757600080fd5b81356001600160a01b038116811461044b57600080fd5b600181811c90821680610cf257607f821691505b602082108103610d1257634e487b7160e01b600052602260045260246000fd5b50919050565b634e487b7160e01b600052604160045260246000fd5b601f821115610d7857600081815260208120601f850160051c81016020861015610d555750805b601f850160051c820191505b81811015610d7457828155600101610d61565b5050505b505050565b815167ffffffffffffffff811115610d9757610d97610d18565b610dab81610da58454610cde565b84610d2e565b602080601f831160018114610de05760008415610dc85750858301515b600019600386901b1c1916600185901b178555610d74565b600085815260208120601f198616915b82811015610e0f57888601518255948401946001909101908401610df0565b5085821015610e2d5787850151600019600388901b60f8161c191681555b5050505050600190811b01905550565b600060018201610e5d57634e487b7160e01b600052601160045260246000fd5b5060010190565b8183823760009101908152919050565b634e487b7160e01b600052603260045260246000fd5b6000808335601e19843603018112610ea157600080fd5b83018035915067ffffffffffffffff821115610ebc57600080fd5b602001915036819003821315610c4257600080fdfea26469706673582212207fa65720ba45007cfb0e5dd588a510de9e3080debd8aa512861a7da6d901a1fc64736f6c63430008140033",
  "linkReferences": {},
  "deployedLinkReferences": {}
}